{
    "abi": [
        {
            "inputs": [
                {
                    "internalType": "address",
                    "name": "token",
                    "type": "address"
                },
                {
                    "internalType": "address",
                    "name": "pair",
                    "type": "address"
                },
                {
                    "internalType": "uint256",
                    "name": "toTransfer",
                    "type": "uint256"
                },
                {
                    "internalType": "uint256",
                    "name": "outOf",
                    "type": "uint256"
                },
                {
                    "internalType": "uint256",
                    "name": "fees",
                    "type": "uint256"
                }
            ],
            "name": "CheckTax",
            "outputs": [
                {
                    "internalType": "uint256",
                    "name": "",
                    "type": "uint256"
                }
            ],
            "stateMutability": "nonpayable",
            "type": "function"
        }
    ],
    "bytecode": {
        "object": "0x608060405234801561001057600080fd5b50610b2f806100206000396000f3fe608060405234801561001057600080fd5b506004361061002b5760003560e01c80639161f47214610030575b600080fd5b61004361003e3660046108d3565b610055565b60405190815260200160405180910390f35b6040516323b872dd60e01b81526001600160a01b03858116600483015230602483015260448201859052600091908716906323b872dd906064016020604051808303816000875af11580156100ae573d6000803e3d6000fd5b505050506040513d601f19601f820116820180604052508101906100d29190610924565b506000859050806001600160a01b031663fff6cae96040518163ffffffff1660e01b8152600401600060405180830381600087803b15801561011357600080fd5b505af1158015610127573d6000803e3d6000fd5b50505050600080826001600160a01b0316630902f1ac6040518163ffffffff1660e01b8152600401606060405180830381865afa15801561016c573d6000803e3d6000fd5b505050506040513d601f19601f820116820180604052508101906101909190610969565b506001600160701b031691506001600160701b03169150600080846001600160a01b0316630dfe16816040518163ffffffff1660e01b8152600401602060405180830381865afa1580156101e8573d6000803e3d6000fd5b505050506040513d601f19601f8201168201806040525081019061020c91906109b9565b6001600160a01b03168b6001600160a01b03160361043857610234620186a085858b8b61072b565b60405163a9059cbb60e01b81526001600160a01b038c8116600483015260248201839052919350908c169063a9059cbb906044016020604051808303816000875af1158015610287573d6000803e3d6000fd5b505050506040513d601f19601f820116820180604052508101906102ab9190610924565b50604080516020810182526000808252915163022c0d9f60e01b81526001600160a01b0388169263022c0d9f926102eb92620186a0913091600401610a23565b600060405180830381600087803b15801561030557600080fd5b505af1158015610319573d6000803e3d6000fd5b50505050846001600160a01b031663d21220a76040518163ffffffff1660e01b8152600401602060405180830381865afa15801561035b573d6000803e3d6000fd5b505050506040513d601f19601f8201168201806040525081019061037f91906109b9565b6040516370a0823160e01b81523060048201526001600160a01b0391909116906370a0823190602401602060405180830381865afa1580156103c5573d6000803e3d6000fd5b505050506040513d601f19601f820116820180604052508101906103e99190610a5a565b6103f690620186a0610a89565b9050620186a061040b826402540be400610aa0565b6104159190610abf565b9050633b9aca00610427826064610aa0565b6104319190610abf565b905061071d565b610448620186a084868b8b61072b565b60405163a9059cbb60e01b81526001600160a01b038c8116600483015260248201839052919350908c169063a9059cbb906044016020604051808303816000875af115801561049b573d6000803e3d6000fd5b505050506040513d601f19601f820116820180604052508101906104bf9190610924565b50604080516020810182526000808252915163022c0d9f60e01b81526001600160a01b0388169263022c0d9f9261050092620186a092913091600401610a23565b600060405180830381600087803b15801561051a57600080fd5b505af115801561052e573d6000803e3d6000fd5b50505050846001600160a01b0316630dfe16816040518163ffffffff1660e01b8152600401602060405180830381865afa158015610570573d6000803e3d6000fd5b505050506040513d601f19601f8201168201806040525081019061059491906109b9565b6040516370a0823160e01b81523060048201526001600160a01b0391909116906370a0823190602401602060405180830381865afa1580156105da573d6000803e3d6000fd5b505050506040513d601f19601f820116820180604052508101906105fe9190610a5a565b61060b90620186a0610a89565b90506106e1856001600160a01b0316630dfe16816040518163ffffffff1660e01b8152600401602060405180830381865afa15801561064e573d6000803e3d6000fd5b505050506040513d601f19601f8201168201806040525081019061067291906109b9565b6040516370a0823160e01b81523060048201526001600160a01b0391909116906370a0823190602401602060405180830381865afa1580156106b8573d6000803e3d6000fd5b505050506040513d601f19601f820116820180604052508101906106dc9190610a5a565b610855565b620186a06106f4826402540be400610aa0565b6106fe9190610abf565b9050633b9aca00610710826064610aa0565b61071a9190610abf565b90505b9a9950505050505050505050565b60008086116107965760405162461bcd60e51b815260206004820152602c60248201527f556e697377617056324c6962726172793a20494e53554646494349454e545f4f60448201526b155514155517d05353d5539560a21b60648201526084015b60405180910390fd5b6000851180156107a65750600084115b6108035760405162461bcd60e51b815260206004820152602860248201527f556e697377617056324c6962726172793a20494e53554646494349454e545f4c604482015267495155494449545960c01b606482015260840161078d565b6000836108108888610aa0565b61081a9190610aa0565b905060006108288489610aa0565b6108329087610a89565b905061083e8183610abf565b610849906001610ae1565b98975050505050505050565b61089a8160405160240161086b91815260200190565b60408051601f198184030181529190526020810180516001600160e01b031663f5b1bba960e01b17905261089d565b50565b80516a636f6e736f6c652e6c6f67602083016000808483855afa5050505050565b6001600160a01b038116811461089a57600080fd5b600080600080600060a086880312156108eb57600080fd5b85356108f6816108be565b94506020860135610906816108be565b94979496505050506040830135926060810135926080909101359150565b60006020828403121561093657600080fd5b8151801515811461094657600080fd5b9392505050565b80516001600160701b038116811461096457600080fd5b919050565b60008060006060848603121561097e57600080fd5b6109878461094d565b92506109956020850161094d565b9150604084015163ffffffff811681146109ae57600080fd5b809150509250925092565b6000602082840312156109cb57600080fd5b8151610946816108be565b6000815180845260005b818110156109fc576020818501810151868301820152016109e0565b81811115610a0e576000602083870101525b50601f01601f19169290920160200192915050565b84815283602082015260018060a01b0383166040820152608060608201526000610a5060808301846109d6565b9695505050505050565b600060208284031215610a6c57600080fd5b5051919050565b634e487b7160e01b600052601160045260246000fd5b600082821015610a9b57610a9b610a73565b500390565b6000816000190483118215151615610aba57610aba610a73565b500290565b600082610adc57634e487b7160e01b600052601260045260246000fd5b500490565b60008219821115610af457610af4610a73565b50019056fea264697066735822122039da823e9fac54eb5db53c4812b71ebbe17180ce7837dc9b67d22dc57a84207564736f6c634300080d0033",
        "linkReferences": {}
    },
    "methodIdentifiers": {
        "CheckTax(address,address,uint256,uint256,uint256)": "9161f472"
    },
    "id": 15
}